:0400000090EFFFF08E
:020000040001F9
:10FDFE00010E006E0000002E01EFFFF01200050E46
:10FE0E00006E0000002E08EFFFF012000B0E006EC9
:10FE1E000000002E0FEFFFF01200180E006E000013
:10FE2E00002E16EFFFF01200310E006E0000002EB5
:10FE3E001DEFFFF012003D0E006E0000002E24EFAD
:10FE4E00FFF012007C0E006E0000002E2BEFFFF074
:10FE5E001200010E016EF90E006E0000002E34EF3E
:10FE6E00FFF0012E32EFFFF01200050E016EF90EBB
:10FE7E00006E0000002E40EFFFF0012E3EEFFFF06F
:10FE8E0012000A0E016EF90E006E0000002E4CEFED
:10FE9E00FFF0012E4AEFFFF01200190E016EF90E5F
:10FEAE00006E0000002E58EFFFF0012E56EFFFF00F
:10FEBE001200320E016EF90E006E0000002E64EF7D
:10FECE00FFF0012E62EFFFF01200640E016EF90ECC
:10FEDE00006E0000002E70EFFFF0012E6EEFFFF0AF
:10FEEE001200C80E016EF90E006E0000002E7CEF9F
:10FEFE00FFF0012E7AEFFFF01200FA0E016EF90EEE
:10FF0E00006E0000002E88EFFFF0012E86EFFFF04E
:10FF1E001200E9EDFFF0EFEDFFF0CEB6C4EFFFF00B
:10FF2E00C291010E026E024602500401D06FC283CE
:10FF3E0084EDFFF084EDFFF0CEB6A8EFFFF0C7EF33
:10FF4E00FFF002BEAFEFFFF0024602509AEFFFF055
:10FF5E00C293010E026E0401D06FC28184EDFFF0D8
:10FF6E00CEB6BCEFFFF0D8EFFFF002BC97EFFFF07C
:10FF7E00024602460250B2EFFFF0D06B94EFFFF054
:10FF8E0084ECFFF084ECFFF084ECFFF084ECFFF0E7
:10FF9E0002500401D06FC283CEB6CFEFFFF0A8EFB0
:10FFAE00FFF084ECFFF084ECFFF084ECFFF084ECC7
:10FFBE00FFF002500401D06FC281CEB6E0EFFFF029
:10FFCE00BCEFFFF00001600EAD6F020EB16F1200BC
:10FFDE000401D06BC06B106BC86B0401D26BC29165
:10FFEE00C293206BCA6B0401CE6B006BC687018770
:02FFFE001200EF
:020000040030CA
:10000000EC0D27C79FFFFFFFFFFFFFFFFFFFFFFF75
:10001000FFFFFFFFFFFFFFFFFFFFFFFFFFFFFFFFF0
:03002000FFFFFFE0
:00000001FF
