:04000000F4EFFEF02B
:020000040001F9
:10FCC600010E006E0000002E65EFFEF01200050E1C
:10FCD600006E0000002E6CEFFEF012000B0E006EA0
:10FCE6000000002E73EFFEF01200180E006E0000EA
:10FCF600002E7AEFFEF01200310E006E0000002E8C
:10FD060081EFFEF012003D0E006E0000002E88EF1F
:10FD1600FEF012007C0E006E0000002E8FEFFEF04B
:10FD26001200010E016EF90E006E0000002E98EF13
:10FD3600FEF0012E96EFFEF01200050E016EF90E92
:10FD4600006E0000002EA4EFFEF0012EA2EFFEF0E2
:10FD560012000A0E016EF90E006E0000002EB0EFC2
:10FD6600FEF0012EAEEFFEF01200190E016EF90E36
:10FD7600006E0000002EBCEFFEF0012EBAEFFEF082
:10FD86001200320E016EF90E006E0000002EC8EF52
:10FD9600FEF0012EC6EFFEF01200640E016EF90EA3
:10FDA600006E0000002ED4EFFEF0012ED2EFFEF022
:10FDB6001200C80E016EF90E006E0000002EE0EF74
:10FDC600FEF0012EDEEFFEF01200FA0E016EF90EC5
:10FDD600006E0000002EECEFFEF0012EEAEFFEF0C2
:10FDE6001200EFEDFFF0F5EDFFF0CEB657EFFFF0A6
:10FDF600080E006E0401D16FE8EDFEF0E8EDFEF0AE
:10FE0600E8EDFEF0E8EDFEF0CEB657EFFFF0030E9C
:10FE1600006E0401D16FE8EDFEF0E8EDFEF0E8EDCE
:10FE2600FEF0E8EDFEF0CEB657EFFFF0460E006EA0
:10FE36000401D16FE8EDFEF0E8EDFEF0E8EDFEF02E
:10FE4600E8EDFEF0CEB657EFFFF0210E006E04018E
:10FE5600D16FE8EDFEF0E8EDFEF0E8EDFEF0E8ED3E
:10FE6600FEF0CEB657EFFFF0060E006E0401D16F1E
:10FE7600E8EDFEF0E8EDFEF0E8EDFEF0E8EDFEF070
:10FE8600CEB657EFFFF00E0E006E0401D16FE8ED0F
:10FE9600FEF0E8EDFEF0E8EDFEF0E8EDFEF0CEB6A1
:10FEA60057EFFFF0FBEFFEF0C00E006E0401D16FBE
:10FEB600E8EDFEF0E8EDFEF0E8EDFEF0E8EDFEF030
:10FEC600CEA6FBEFFEF0F90E006E0401D16FE8ED51
:10FED600FEF0E8EDFEF0E8EDFEF0E8EDFEF0CEA671
:10FEE600FBEFFEF0A40E006E0401D16FE8EDFEF00C
:10FEF600E8EDFEF0E8EDFEF0E8EDFEF0CEA6FBEF55
:10FF0600FEF0B00E006E0401D16FE8EDFEF0E8EDF4
:10FF1600FEF0E8EDFEF0E8EDFEF0CEA6FBEFFEF01B
:10FF2600990E006E0401D16FE8EDFEF0E8EDFEF0EB
:10FF3600E8EDFEF0E8EDFEF0CEA6FBEFFEF0920E49
:10FF4600006E0401D16FE8EDFEF0E8EDFEF0E8ED9D
:10FF5600FEF0E8EDFEF0CEA6FBEFFEF0820E006EA0
:10FF66000401D16FE8EDFEF0E8EDFEF0E8EDFEF0FD
:10FF7600E8EDFEF0CEA6FBEFFEF0F80E006E0401F3
:10FF8600D16FE8EDFEF0E8EDFEF0E8EDFEF0E8ED0D
:10FF9600FEF0CEA6FBEFFEF0800E006E0401D16FE0
:10FFA600E8EDFEF0E8EDFEF0E8EDFEF0E8EDFEF03F
:10FFB600CEA6FBEFFEF0980E006E0401D16FE8EDC1
:10FFC600FEF0E8EDFEF0E8EDFEF0E8EDFEF0CEA680
:10FFD600FBEFFEF057EFFFF00001600EAD6F020E73
:10FFE600B16F12000401D16BC16B186BC96B0401B0
:0AFFF600CE6B006BC6870187120076
:020000040030CA
:10000000EC0D27C79FFFFFFFFFFFFFFFFFFFFFFF75
:10001000FFFFFFFFFFFFFFFFFFFFFFFFFFFFFFFFF0
:03002000FFFFFFE0
:00000001FF
