:0400000013EF00F00A
:10000800B4B055EF00F0B8B0B890C06B1F681000DE
:10001800AFA012EF00F0AF9028EF00F0100066EDEF
:1000280000F06CED00F083ED00F08DED00F00401C0
:10003800C39781ED02F081ED02F0C38781ED02F0F4
:1000480081ED02F01BEF00F0050E1C6E000E1E6E17
:100058001F6E4EEF00F00401000EFB6F000EFA6FEA
:100068001A445BEC00F01FB212EF00F01EB212EF60
:1000780000F0C06E1D6E81ED02F01B2E46EF00F001
:1000880049EF00F01A2A2FEF00F01C2E4EEF00F077
:1000980012EF00F0C3870A0E1B6E000E1A6E2FEFC8
:1000A80000F0B4901D50C06F1E680BEF00F0F926E9
:1000B800810C420C240C180C000C180C240C420C5B
:1000C800810C000C0001600EAD6F020EB16F1200C2
:1000D8000401D36BC387286BCB97CB852985040193
:1000E800CE6B006BC68701870401D06BC06B106BA9
:1000F800C86B0401CF890899C789098912000201D0
:10010800030E3E6F02010C0E3F6F02012A0E406F74
:100118001200D68A0301639168816C81D690AF90F2
:100128009F80D692B490A480D694B890A880D68E9A
:04013800D68C12004F
:10050200FA0E016EF90E006E0000002E85EF02F069
:08051200012E83EF02F012003C
:020000040030CA
:10000000EC0D27C79FFFFFFFFFFFFFFFFFFFFFFF75
:10001000FFFFFFFFFFFFFFFFFFFFFFFFFFFFFFFFF0
:03002000FFFFFFE0
:00000001FF
